:03000000020C8966
:0C0C8900787FE4F6D8FD758121020CD0C4
:0C000300000000000000000000000000F1
:0B116D00EF1FAC0670011E4C70F62254
:10002A00AB07AA06EB1BAE0270011A4E60097FAA43
:08003A007E0512116D80ED221C
:100A5300907120E04480F07F057E0012116DE4FF69
:100A6300FE12002A75A75575AC589071327450F078
:100A73009071307403F0907136742FF07F18EF2467
:100A830066FDE434718D82F583E4F00FEFB433EE49
:100A9300904011E4935407FF90711CE054F84FF019
:100AA300904017E493547FFF90711DE054804FF002
:100AB300904010E493FF5401C43333335480FE90C9
:100AC3007123E0547F4EF0EFC313543F4440FFA320
:100AD300E054804FF0904012E493FF540FFE907166
:100AE30046E054F04EF0EFC4540FFF90714FE054C2
:100AF300F04FF0904013E493543FFF907140E05463
:100B0300C04FF0904014E493907126F0904015E4A8
:0E0B130093907128F0904016E49390712AF0B0
:010B210022B1
:100E7B0075D9DD120A5375D95590715EE054FEF0A9
:100E8B0075D9BB1210AB1211161210C8120F241207
:100E9B000F7212106B12104A78D3E254FCF2E24438
:100EAB0001F290718AE4F0C294120BE212069C12CA
:100EBB000B2212101890627BE0FEA3E0FF120E10C3
:0A0ECB0090627DEEF0A3EFF080E2EC
:1007BC0042627F07D142628107D1C1064262830047
:0B07CC000042627B07D142627D07D132
:0A117800E47BD17A07F9F802043392
:100F24007812E24401F27856E4F278277407F21852
:100F340074D0F27833E4F218F27819E24401F278CA
:100F440011E24401F27817E24401F27812E244011A
:100F5400F27814E24401F27818E24401F278D3E220
:0E0F640054CFF2E24410F290718C740AF02225
:10112800AC06EC7833F218EFF27817E24401F222B9
:0C1155007818E230E0037F01227F0022C6
:0D1148007818E24401F290718C740AF022D4
:0E000F0090718CE4F0D2967818E254FEF22242
:100E10009062857407F0A374D1F030060A90628561
:100E20007406F0A37440F09062A1E0FCA3E0FD1210
:100E3000053E121178A804A905AA06AB07906285A1
:100E4000E0FEA3E0FFE4FCFD1203A8121178AC065B
:100E5000AD07D3906280E09D90627FE09C5005E0FA
:100E6000FCA3E0FDD3906282E09D906281E09C5003
:0A0E700005E0FCA3E0FDAE04AF05B1
:010E7A002255
:1007D70041627700426275FFFF426279FFFF426222
:1007E70073FFFF4162780041626800C10741626997
:1007F7000041626A0044626B0000000042626F00C1
:0608070000426271FFFFD8
:100FAE007FEA7E0BFDFC9062851204F5C30204C538
:100FBE00907123E054F8F0E0441EF0907122740713
:100FCE00F022E0FF90628EE09F90628DE09E229074
:070FDE00626AE0C3941422D3
:1010AB0078F2E24403F278E3E244C0F278F0E254DF
:0D10BB00FDF208E254FDF208E2440CF222BE
:1011160043AA04D2AF786AE24479F27F017E0002E4
:02112600002A9D
:100FE500EF24FE601914601E24027020907123E026
:100FF50054D8F0E0441D120FC8759917800E120FD2
:10100500BE7599198006120FBE7599187869E24464
:0310150048F2227C
:1010FE00906273E0FEA3E0FF7C007D0C12031E7D68
:08110E000A120330E4FCFD228B
:100B220090628512050D00000000906277E0640279
:100B32007003020BE11210FE9062851205017F32F2
:100B42007E337D017C00120FB44003020BE1906200
:040B520077E07028B0
:100B5600120FAE5008906268E004F08005E49062DF
:100B660068F0906268E0C3940AE44007F090627708
:080B760004F022906277F022E6
:080B7E00906277E06401705BF6
:100B860020070FD20790629912050D00000000128F
:100B96001161E47F307E75FDFC906299120FB740BB
:010BA6003A14
:100BA700E4120FAE5008906269E004F08005E4900B
:100BB7006269F0906269E0C3940A4018E4F09062B9
:100BC700777402F012113890629912050D00000037
:0A0BD70000C207229062777401F05B
:010BE10022F1
:10101800906277E07008300528C2050200459062AA
:1010280077E0B4010B90627F7403F0A374E8F022B8
:10103800906277E0B4020A90627F7401F0A374F4BE
:02104800F02294
:0300420002056B49
:10056B00C0E0C0F0C083C082C0D075D000C000C056
:10057B0001C002C003C004C005C006C007786BE20F
:06058B0020E103020681DD
:10059100AF93EF75F010A4FFE594C4540FFDEF4D38
:1005A100FF90628DE5F0F0A3EFF0E24402F2906279
:0905B10078E064026003020658C0
:1005BA00120FDD505EE004F0E0C39402404A9062FC
:1005CA006FE0FEA3D3120FD0400CE0FFA3E09062CD
:1005DA006FCFF0A3EFF0906271E0FEA3C3120FD0C9
:1005EA00500CE0FFA3E0906271CFF0A3EFF09062AD
:1005FA006B1204F590628DE0FEA3E0FFE4FCFD12AD
:10060A00039B90626B120501120FDD50067869E2B6
:10061A004401F2120FDD405FA31204E978041204C8
:10062A00D6906275EEF0A3EFF09062787403F090C2
:10063A00626AE4F090626FF0A3F090627174FFF066
:0C064A00A3F090626B12050D0000000090
:100656008029906278E0B4050C90628DE0FFA3E0FB
:100666009062798011906278E0B4070F90628DE015
:0B067600FFA3E0906273CFF0A3EFF051
:10068100D007D006D005D004D003D002D001D000CD
:0B069100D0D0D082D083D0F0D0E03277
:07080D0044629500000000A9
:1010C80043A820D2AF75D10178957401F2187476CF
:0B10D800F2789174A0F21874FDF2226F
:03001E00020D15BB
:100D1500C0E0C0F0C083C082C0D075D000C000C0A4
:100D250001C002C003C004C005C006C0077891E237
:090D350030E742E24480F2D203EF
:100D3E002006399062951204E9EF2401FFE43EFE8D
:100D4E00E43DFDE43CFC9062951205017F807EEE51
:100D5E007D367C009062951204F5C31204C5400CDA
:0C0D6E0090629512050D00000000D206F6
:100D7A00D007D006D005D004D003D002D001D000CD
:0B0D8A00D0D0D082D083D0F0D0E03277
:07081400446299000000009E
:08118200789CE2541FF2E22206
:100F7200E5B154CF42B1789CE254E3F2E24414F278
:100F8200E254FCF2E24401F208E24480F2E244203C
:100F9200F278A1743BF2187460F2789EE4F208F2DF
:0C0FA20012118244A0F253A8BFD2AF226B
:0C11610012118244C0F243A840D2AF2219
:1011380012118244A0F2789EE4F208F253A8BF226A
:03002100020ED5F7
:100ED500C0E0C0F0C083C082C0D075D000C000C0E3
:100EE50004C005C006C007789DE230E71DE24480D6
:100EF500F29062991204E9EF2401FFE43EFEE43D1D
:100F0500FDE43CFC906299120501D007D006D0059E
:0F0F1500D004D000D0D0D082D083D0F0D0E03242
:09081B00C100C10142629300001A
:1010E300906283E0FEA3E0FF22E475F00102038532
:0B10F30090627EE09F90627DE09E22F4
:10106B0043A901D2AF75D104907105E4F0907104DE
:10107B007424F090710174A0F090710074FDF02253
:030024000208A02F
:1008A000C0E0C0F0C083C082C0D075D000C000C01E
:1008B00001C002C003C004C005C006C0079071019A
:1008C000E020E70302095FE04480F090628F12109D
:1008D000EC9062911210EC9062931210ECC3906253
:1008E00092E0940D906291E094004006E4F0A3F051
:1008F000D201C3906290E0940D90628FE09400402A
:1009000006E4F0A3F0D200C3906294E094149062E5
:1009100093E094004049E4F0A3F02002421210E377
:10092000D31210F34009906283E475F00180101235
:1009300010E3C31210F3500A90628374FFF5F012B3
:1009400003851210E3121128D3906284E094009082
:100950006283E09400500512000F8003121148D00A
:1009600007D006D005D004D003D002D001D000D0EB
:0A097000D0D082D083D0F0D0E03266
:070824004262A107D1C108E7
:10108B00E0FEA3E0FF12053E7B0AE4FAF9F8120436
:10109B0033E422906286E094DD906285E094042232
:10069C00E4906285F0A3F0906279E0FFA3E09062B1
:1006AC0085CFF0A3EFF0906285E0F47003A3E0F443
:1006BC0070030207BB3008030207B3D3906286E0D5
:1006CC0094EA906285E09401500AE49062A1F0A350
:1006DC00F00207A6D312109E5029E0FEA3E0FFEF14
:1006EC002416FFEE34FEFEE434FFFDE434FFFCE49C
:1006FC007BA27A0FF9F81203A81210937BDD7A040F
:10070C0002078DD3906286E094EE906285E09408A7
:10071C00500E7C1F7D4412108B7BEE7A0802078DE5
:10072C00D3906286E09412906285E0940B5017E0AF
:10073C00FEA3E0FF7C077DD112053E7B02121095D3
:10074C007B127A0B803BD3906286E094BC906285DE
:10075C00E0940C500D7C2E7DE612108B7BBC7A0C39
:10076C00801FD3906286E09491906285E0940F5044
:10077C001FE0FEA3E0FF7C3E7D881210907B917AF7
:10078C000FF9F81204339062A1EEF0A3EFF0800A97
:10079C009062A17407F0A374D1F09062A1E0700292
:0F07AC00A3E0700BD20822C312109E4002C208B5
:0107BB00221B
:0B082B00C10244629D00000000C103F8
:100BE200E4906283F0A3F0D20212069C9062A1E02C
:100BF200FEA3E0FFC3906284E09F906283E09E5078
:100C020065300355C20390629D1204E9EF24FAFF96
:100C1200E43EFEE43DFDE43CFC90629D120501E4ED
:100C22007FE87E03FDFC90629D1204F5C31204C5A9
:100C3200402790629D1204E9C3EF94E8FFEE94030B
:100C4200FEED9400FDEC9400FC90629D1205019073
:100C52006283E475F001120385906283E0FEA3E0F3
:100C6200FF1211288083906283E0FFA3E090627BF1
:100C7200CFF0A3EFF0906283E0FFA3E090627DCF1C
:070C8200F0A3EFF0C2022213
:040836004162A40176
:07118A007869E24401F22242
:10104A0043A902D2AF75D10890710D7401F0907165
:10105A000C745DF090710974A0F090710874FDF041
:01106A002263
:0300270002097A51
:10097A00C0E0C0F0C083C082C0D075D000C000C043
:10098A0001C002C003C004C005C006C007907109B7
:0E099A00E020E703020A38907109E04480F083
:1009A8009062A3E004F0E0C39408400AA3E0600664
:1009B800E4F0906278F09062A3E0C3940A4007E400
:0609C800F0D205A304F0CB
:1009CE00906278E06004E0B4070D7F01120FE590AD
:1009DE0062787401F08053906278E0B401081211CD
:1009EE008A7402F08044906278E0B4030D7F0212A4
:1009FE000FE59062787404F08030906278E0B40471
:100A0E000812118A7405F08021906278E0B4050D09
:100A1E007F03120FE59062787406F0800D90627875
:100A2E00E0B4060612118A7407F0D007D006D0057E
:100A3E00D004D003D002D001D000D0D0D082D08349
:050A4E00D0F0D0E03201
:10083A0042600300004262650000426263100041A8
:10084A0062670060406005FFFF00000000000000D2
:10085A00000000000000000000000000000000008E
:10086A00000000000000000000000000000000007E
:10087A00000000000000000000000000000000006E
:10088A0000000000000000416000004160010041DA
:05089A00600200C10432
:100D9500EF25E0FFEE33FE74472FF58274603EF5D4
:100DA50083227FC37E05E4FDFC9062851204F5D3A2
:100DB5000204C5ECF0A3EDF090628BE475F001023E
:100DC5000385D3906282E094E8906281E0940322E7
:100DD50090628BE0FEA3E0FFC322906000E025E077
:100DE5002405F582E43460F58322E490628BF0A358
:100DF500F02233FE74052FF58274603EF583229050
:0B0E0500628CE025E0FF90628BE02291
:1000450090628512050D00000000906275E0FFA327
:10005500E0906289CFF0A3EFF0906289E0F470033D
:10006500A3E0F4700302031D906005E0F47003A3A0
:04007500E0F4703F04
:10007900120DF0120DD59420EE940050159062895E
:10008900E0FCA3E0FDEF25E0FFEE120DF7120DB83D
:1000990080E1120DEF120DD5940EEE940150599096
:0F00A9006289E0FCA3E0FD120D95120DB880E610
:1000B800120DDFE0FFA3E090628BCFF0A3EFF0908A
:1000C8006289E0FEA3E0FF90628BEE8FF012038559
:1000D80090628BE0C313FEA3E013FF90628BEEF0F7
:1000E800A3EFF0120DDFEEF0A3EFF0906000E00454
:0900F800F0E0C394204002E4F0A2
:10010100120DEF9062851204F5120E04120DF7E044
:10011100FEA3E0FFE4FCFD12039B90628512050142
:10012100120DBD90628BE07004A3E0642070D49046
:1001310062851204E978051204D6906285120501E0
:100141009062851204E9AD07AC06906046E025E0B7
:10015100FF906045E033FE74472FF58274603EF5F1
:1001610083ECF0A3EDF0906045120DC0C3906046A2
:0F017100E0940E906045E094014004E4F0A3F0A8
:10018000120DEF906265F0A3F09062637410F0A31B
:10019000E4F0120DD5940EEE9401400302022312F6
:1001A0000D95E0FCA3E0FD906265E0FAA3E0FBD3CF
:1001B000ED9BEC9A400F120D9CE0FFA3E09062656E
:1001C000CFF0A3EFF0120E04120D9AE0FCA3E0FDB5
:1001D000906263E0FAA3E0FBC3ED9BEC9A500F1230
:1001E0000D9CE0FFA3E0906263CFF0A3EFF090627C
:1001F00063E0FEA3E0FFC3906266E09FFF9062654C
:10020000E09EFED3EF9450EE940040089062677435
:100210001EF08009906267E06003E014F0120DBDEB
:0302200002019246
:10022300E47F8B7E06FDFC9062851204F5C3120405
:10023300C5500C3004597F8B7E06120DAB4050E441
:10024300906001F0A3F0D204906267E0B41E1BE05B
:1002530014F0120DC7400774FFF5F0120385C312A3
:100263000DC8400302031D0202D7906267E06003DA
:1002730002031D20000302031DC200C3906282E03B
:1002830094D1906281E09407400302031D803C12E5
:100293000DA74048E47F6D7E06120DAC40089060C8
:1002A30001E064047036300171C201906001E0C363
:1002B30094045003E004F0E4906002F0C204120DD1
:1002C300C740028043C3120DC85006E475F0018095
:1002D3003C9062817403F0A374E8F022120DA740EE
:1002E30006906002E06033300130C2019060027416
:1002F30001F0E4906001F0C204D3906282E094586C
:10030300906281E09402400874FF75F0FE02038559
:0A0313009062817402F0A37458F0A8
:01031D0022BD
:100C9500020E7BE493A3F8E493A34003F68001F2EC
:100CA50008DFF48029E493A3F85407240CC8C33360
:100CB500C4540F4420C8834004F456800146F6DF2F
:100CC500E4800B01020408102040809007BCE47EFC
:100CD500019360BCA3FF543F30E509541FFEE49324
:100CE500A360010ECF54C025E060A840B8E493A3EB
:100CF500FAE493A3F8E493A3C8C582C8CAC583CA16
:100D0500F0A3C8C582C8CAC583CADFE9DEE780BECD
:01089F000058
:10031E00EF8DF0A4A8F0CF8CF0A428CE8DF0A42EF3
:02032E00FE22AD
:10033000BC000BBE0029EF8DF084FFADF022E4CCB1
:10034000F875F008EF2FFFEE33FEEC33FCEE9DEC7A
:10035000984005FCEE9DFE0FD5F0E9E4CEFD22EDC0
:10036000F8F5F0EE8420D21CFEADF075F008EF2F0A
:10037000FFED33FD4007985006D5F0F222C398FDFB
:050380000FD5F0EA2298
:10038500C5F0F8A3E028F0C5F0F8E5821582700203
:060395001583E038F022A0
:0D039B00EF2BFFEE3AFEED39FDEC38FC22B1
:1003A800E88FF0A4CC8BF0A42CFCE98EF0A42CFCF4
:1003B8008AF0EDA42CFCEA8EF0A4CDA8F08BF0A472
:1003C8002DCC3825F0FDE98FF0A42CCD35F0FCEBD1
:1003D8008EF0A4FEA9F0EB8FF0A4CFC5F02ECD3996
:0F03E800FEE43CFCEAA42DCE35F0FDE43CFC2203
:1003F70075F008758200EF2FFFEE33FECD33CDCCBD
:1004070033CCC58233C5829BED9AEC99E58298403F
:100417000CF582EE9BFEED9AFDEC99FC0FD5F0D61C
:10042700E4CEFBE4CDFAE4CCF9A88222B800C1B946
:100437000059BA002DEC8BF084CFCECDFCE5F0CB84
:10044700F97818EF2FFFEE33FEED33FDEC33FCEBBD
:1004570033FB10D703994004EB99FB0FD8E5E4F978
:10046700FA227818EF2FFFEE33FEED33FDEC33FC65
:10047700C933C910D7059BE99A4007EC9BFCE99A59
:10048700F90FD8E0E4C9FAE4CCFB2275F010EF2F9E
:10049700FFEE33FEED33FDCC33CCC833C810D7079E
:1004A7009BEC9AE899400AED9BFDEC9AFCE899F8D9
:0E04B7000FD5F0DAE4CDFBE4CCFAE4C8F9226C
:1004C500EB9FF5F0EA9E42F0E99D42F0E89C45F08D
:0104D5002204
:1004D600E8600FECC313FCED13FDEE13FEEF13FF04
:0304E600D8F12228
:0C04E900E0FCA3E0FDA3E0FEA3E0FF2286
:0C04F500E0F8A3E0F9A3E0FAA3E0FB228A
:0C050100ECF0A3EDF0A3EEF0A3EFF0226D
:10050D00A8828583F0D083D082120524120524128F
:10051D000524120524E473E493A3C583C5F0C583B4
:10052D00C8C582C8F0A3C583C5F0C583C8C582C838
:01053D00229B
:10053E00EC8EF0A4CCC5F0CCCDF8EFA4CEC5F02D4A
:10054E00FDE43CFCE8A42EC8C5F03DFDE43CFCEF08
:0D055E00A4FFE5F028FEE43DFDE43CFC2296
:00000001FF
