:03000000020C8966
:0C0C8900787FE4F6D8FD758121020CD0C4
:0C000300000000000000000000000000F1
:0B116D00EF1FAC0670011E4C70F62254
:10002A00AB07AA06EB1BAE0270011A4E60097FAA43
:08003A007E0512116D80ED221C
:100A5200907120E04480F07F057E0012116DE4FF6A
:100A6200FE12002A75A75575AC589071327450F079
:100A72009071307403F0907136742FF07F18EF2468
:100A820066FDE434718D82F583E4F00FEFB433EE4A
:100A9200904011E4935407FF90711CE054F84FF01A
:100AA200904017E493547FFF90711DE054804FF003
:100AB200904010E493FF5401C43333335480FE90CA
:100AC2007123E0547F4EF0EFC313543F4440FFA321
:100AD200E054804FF0904012E493FF540FFE907167
:100AE20046E054F04EF0EFC4540FFF90714FE054C3
:100AF200F04FF0904013E493543FFF907140E05464
:100B0200C04FF0904014E493907126F0904015E4A9
:0E0B120093907128F0904016E49390712AF0B1
:010B200022B2
:100E7B0075D9DD120A5275D95590715EE054FEF0AA
:100E8B0075D9BB1210AB1211161210C8120F241207
:100E9B000F7212106B12104A78D3E254FCF2E24438
:100EAB0001F290718AE4F0C294120BE112069B12CC
:100EBB000B2112101890627BE0FEA3E0FF120E10C4
:0A0ECB0090627DEEF0A3EFF080E2EC
:1007BB0042627F17714262811771C10642628300E8
:0B07CB000042627B177142627D1771D3
:0A117800E47B717A17F9F8020432E3
:100F24007812E24401F27856E4F278277417F21842
:100F34007470F27833E4F218F27819E24401F2782A
:100F440011E24401F27817E24401F27812E244011A
:100F5400F27814E24401F27818E24401F278D3E220
:0E0F640054CFF2E24410F290718C740AF02225
:10112800AC06EC7833F218EFF27817E24401F222B9
:0C1155007818E230E0037F01227F0022C6
:0D1148007818E24401F290718C740AF022D4
:0E000F0090718CE4F0D2967818E254FEF22242
:100E10009062857417F0A37471F030060A906285B1
:100E20007412F0A374C0F09062A1E0FCA3E0FD1284
:100E3000053D121178A804A905AA06AB07906285A2
:100E4000E0FEA3E0FFE4FCFD1203A7121178AC065C
:100E5000AD07D3906280E09D90627FE09C5005E0FA
:100E6000FCA3E0FDD3906282E09D906281E09C5003
:0A0E700005E0FCA3E0FDAE04AF05B1
:010E7A002255
:1007D60041627700426275FFFF426279FFFF426223
:1007E60073FFFF4162780041626800C10741626998
:1007F6000041626A0044626B0000000042626F00C2
:0608060000426271FFFFD9
:100FAE007FEA7E0BFDFC9062851204F4C30204C43A
:100FBE00907123E054F8F0E0441EF0907122740713
:100FCE00F022E0FF90628EE09F90628DE09E229074
:070FDE00626AE0C3941422D3
:1010AB0078F2E24403F278E3E244C0F278F0E254DF
:0D10BB00FDF208E254FDF208E2440CF222BE
:1011160043AA04D2AF786AE24479F27F017E0002E4
:02112600002A9D
:100FE500EF24FE601914601E24027020907123E026
:100FF50054D8F0E0441D120FC8759917800E120FD2
:10100500BE7599198006120FBE7599187869E24464
:0310150048F2227C
:1010FE00906273E0FEA3E0FF7C007D0C12031D7D69
:08110E000A12032FE4FCFD228C
:100B210090628512050C00000000906277E064027B
:100B31007003020BE01210FE9062851205007F32F5
:100B41007E337D017C00120FB44003020BE0906202
:040B510077E07028B1
:100B5500120FAE5008906268E004F08005E49062E0
:100B650068F0906268E0C3940AE44007F090627709
:080B750004F022906277F022E7
:080B7D00906277E06401705BF7
:100B850020070FD20790629912050C000000001291
:100B95001161E47F307E75FDFC906299120FB740BC
:010BA5003A15
:100BA600E4120FAE5008906269E004F08005E4900C
:100BB6006269F0906269E0C3940A4018E4F09062BA
:100BC600777402F012113890629912050C00000039
:0A0BD60000C207229062777401F05C
:010BE00022F2
:10101800906277E07008300528C2050200459062AA
:1010280077E0B4010B90627F740BF0A374B8F022E0
:10103800906277E0B4020A90627F7405F0A374DCD2
:02104800F02294
:0300420002056A4A
:10056A00C0E0C0F0C083C082C0D075D000C000C057
:10057A0001C002C003C004C005C006C007786BE210
:06058A0020E103020680DF
:10059000AF93EF75F010A4FFE594C4540FFDEF4D39
:1005A000FF90628DE5F0F0A3EFF0E24402F290627A
:0905B00078E064026003020657C2
:1005B900120FDD505EE004F0E0C39402404A9062FD
:1005C9006FE0FEA3D3120FD0400CE0FFA3E09062CE
:1005D9006FCFF0A3EFF0906271E0FEA3C3120FD0CA
:1005E900500CE0FFA3E0906271CFF0A3EFF09062AE
:1005F9006B1204F490628DE0FEA3E0FFE4FCFD12AF
:10060900039A90626B120500120FDD50067869E2B9
:100619004401F2120FDD405FA31204E878041204CA
:10062900D5906275EEF0A3EFF09062787403F090C4
:10063900626AE4F090626FF0A3F090627174FFF067
:0C064900A3F090626B12050C0000000092
:100655008029906278E0B4050C90628DE0FFA3E0FC
:100665009062798011906278E0B4070F90628DE016
:0B067500FFA3E0906273CFF0A3EFF052
:10068000D007D006D005D004D003D002D001D000CE
:0B069000D0D0D082D083D0F0D0E03278
:07080C0044629500000000AA
:1010C80043A820D2AF75D10178957401F2187476CF
:0B10D800F2789174A0F21874FDF2226F
:03001E00020D15BB
:100D1500C0E0C0F0C083C082C0D075D000C000C0A4
:100D250001C002C003C004C005C006C0077891E237
:090D350030E742E24480F2D203EF
:100D3E002006399062951204E8EF2401FFE43EFE8E
:100D4E00E43DFDE43CFC9062951205007F807EEE52
:100D5E007D367C009062951204F4C31204C4400CDC
:0C0D6E0090629512050C00000000D206F7
:100D7A00D007D006D005D004D003D002D001D000CD
:0B0D8A00D0D0D082D083D0F0D0E03277
:07081300446299000000009F
:08118200789CE2541FF2E22206
:100F7200E5B154CF42B1789CE254E3F2E24414F278
:100F8200E254FCF2E24401F208E24480F2E244203C
:100F9200F278A1743BF2187460F2789EE4F208F2DF
:0C0FA20012118244A0F253A8BFD2AF226B
:0C11610012118244C0F243A840D2AF2219
:1011380012118244A0F2789EE4F208F253A8BF226A
:03002100020ED5F7
:100ED500C0E0C0F0C083C082C0D075D000C000C0E3
:100EE50004C005C006C007789DE230E71DE24480D6
:100EF500F29062991204E8EF2401FFE43EFEE43D1E
:100F0500FDE43CFC906299120500D007D006D0059F
:0F0F1500D004D000D0D0D082D083D0F0D0E03242
:09081A00C100C10142629300001B
:1010E300906283E0FEA3E0FF22E475F00102038433
:0B10F30090627EE09F90627DE09E22F4
:10106B0043A901D2AF75D104907105E4F0907104DE
:10107B007424F090710174A0F090710074FDF02253
:0300240002089F30
:10089F00C0E0C0F0C083C082C0D075D000C000C01F
:1008AF0001C002C003C004C005C006C0079071019B
:1008BF00E020E70302095EE04480F090628F12109F
:1008CF00EC9062911210EC9062931210ECC3906254
:1008DF0092E0940D906291E094004006E4F0A3F052
:1008EF00D201C3906290E0940D90628FE09400402B
:1008FF0006E4F0A3F0D200C3906294E094149062E7
:10090F0093E094004049E4F0A3F02002421210E378
:10091F00D31210F34009906283E475F00180101236
:10092F0010E3C31210F3500A90628374FFF5F012B4
:10093F0003841210E3121128D3906284E094009084
:10094F006283E09400500512000F8003121148D00B
:10095F0007D006D005D004D003D002D001D000D0EC
:0A096F00D0D082D083D0F0D0E03267
:070823004262A11771C10838
:10108B00E0FEA3E0FF12053D7B0AE4FAF9F8120437
:10109B0032E422906286E094DD906285E094042233
:10069B00E4906285F0A3F0906279E0FFA3E09062B2
:1006AB0085CFF0A3EFF0906285E0F47003A3E0F444
:1006BB0070030207BA3008030207B2D3906286E0D8
:1006CB0094EA906285E09401500AE49062A1F0A351
:1006DB00F00207A5D312109E5029E0FEA3E0FFEF16
:1006EB002416FFEE34FEFEE434FFFDE434FFFCE49D
:1006FB007BE27A2EF9F81203A71210937BDD7A04B2
:10070B0002078CD3906286E094EE906285E09408A9
:10071B00500E7C5D7DC412108B7BEE7A0802078C29
:10072B00D3906286E09412906285E0940B5017E0B0
:10073B00FEA3E0FF7C177D7112053D7B0212109525
:10074B007B127A0B803BD3906286E094BC906285DF
:10075B00E0940C500D7C8C7DA612108B7BBC7A0C1C
:10076B00801FD3906286E09491906285E0940F5045
:10077B001FE0FEA3E0FF7CBB7D881210907B917A7B
:10078B000FF9F81204329062A1EEF0A3EFF0800A99
:10079B009062A17417F0A37471F09062A1E07002E3
:0F07AB00A3E0700BD20822C312109E4002C208B6
:0107BA00221C
:0B082A00C10244629D00000000C103F9
:100BE100E4906283F0A3F0D20212069B9062A1E02E
:100BF100FEA3E0FFC3906284E09F906283E09E5079
:100C010066300356C20390629D1204E8EF24EEFFA2
:100C1100EE3402FEE43DFDE43CFC90629D120500D1
:100C2100E47FE87E03FDFC90629D1204F4C312048C
:100C3100C4402790629D1204E8C3EF94E8FFEE944C
:100C410003FEED9400FDEC9400FC90629D12050002
:100C5100906283E475F001120384906283E0FEA345
:100C6100E0FF1211288082906283E0FFA3E090628E
:100C71007BCFF0A3EFF0906283E0FFA3E090627D71
:080C8100CFF0A3EFF0C2022244
:040835004162A40177
:07118A007869E24401F22242
:10104A0043A902D2AF75D10890710D7401F0907165
:10105A000C745DF090710974A0F090710874FDF041
:01106A002263
:0300270002097952
:10097900C0E0C0F0C083C082C0D075D000C000C044
:1009890001C002C003C004C005C006C007907109B8
:0E099900E020E703020A37907109E04480F085
:1009A7009062A3E004F0E0C39408400AA3E0600665
:1009B700E4F0906278F09062A3E0C3940A4007E401
:0609C700F0D205A304F0CC
:1009CD00906278E06004E0B4070D7F01120FE590AE
:1009DD0062787401F08053906278E0B401081211CE
:1009ED008A7402F08044906278E0B4030D7F0212A5
:1009FD000FE59062787404F08030906278E0B40472
:100A0D000812118A7405F08021906278E0B4050D0A
:100A1D007F03120FE59062787406F0800D90627876
:100A2D00E0B4060612118A7407F0D007D006D0057F
:100A3D00D004D003D002D001D000D0D0D082D0834A
:050A4D00D0F0D0E03202
:1008390042600300004262650000426263100041A9
:1008490062670060406005FFFF00000000000000D3
:10085900000000000000000000000000000000008F
:10086900000000000000000000000000000000007F
:10087900000000000000000000000000000000006F
:1008890000000000000000416000004160010041DB
:05089900600200C10433
:100D9500EF25E0FFEE33FE74472FF58274603EF5D4
:100DA50083227FC37E05E4FDFC9062851204F4D3A3
:100DB5000204C4ECF0A3EDF090628BE475F001023F
:100DC5000384D3906282E094B8906281E0940B2210
:100DD50090628BE0FEA3E0FFC322906000E025E077
:100DE5002405F582E43460F58322E490628BF0A358
:100DF500F02233FE74052FF58274603EF583229050
:0B0E0500628CE025E0FF90628BE02291
:1000450090628512050C00000000906275E0FFA328
:10005500E0906289CFF0A3EFF0906289E0F470033D
:10006500A3E0F4700302031C906005E0F47003A3A1
:04007500E0F4703F04
:10007900120DF0120DD59420EE940050159062895E
:10008900E0FCA3E0FDEF25E0FFEE120DF7120DB83D
:1000990080E1120DEF120DD5940EEE940150599096
:0F00A9006289E0FCA3E0FD120D95120DB880E610
:1000B800120DDFE0FFA3E090628BCFF0A3EFF0908A
:1000C8006289E0FEA3E0FF90628BEE8FF01203845A
:1000D80090628BE0C313FEA3E013FF90628BEEF0F7
:1000E800A3EFF0120DDFEEF0A3EFF0906000E00454
:0900F800F0E0C394204002E4F0A2
:10010100120DEF9062851204F4120E04120DF7E045
:10011100FEA3E0FFE4FCFD12039A90628512050044
:10012100120DBD90628BE07004A3E0642070D49046
:1001310062851204E878051204D5906285120500E3
:100141009062851204E8AD07AC06906046E025E0B8
:10015100FF906045E033FE74472FF58274603EF5F1
:1001610083ECF0A3EDF0906045120DC0C3906046A2
:0F017100E0940E906045E094014004E4F0A3F0A8
:10018000120DEF906265F0A3F09062637410F0A31B
:10019000E4F0120DD5940EEE9401400302022312F6
:1001A0000D95E0FCA3E0FD906265E0FAA3E0FBD3CF
:1001B000ED9BEC9A400F120D9CE0FFA3E09062656E
:1001C000CFF0A3EFF0120E04120D9AE0FCA3E0FDB5
:1001D000906263E0FAA3E0FBC3ED9BEC9A500F1230
:1001E0000D9CE0FFA3E0906263CFF0A3EFF090627C
:1001F00063E0FEA3E0FFC3906266E09FFF9062654C
:10020000E09EFED3EF9450EE940040089062677435
:100210001EF08009906267E06003E014F0120DBDEB
:0302200002019246
:10022300E47F8B7E06FDFC9062851204F4C3120406
:10023300C4500C3004597F8B7E06120DAB4050E442
:10024300906001F0A3F0D204906267E0B41E1BE05B
:1002530014F0120DC7400774FFF5F0120384C312A4
:100263000DC8400302031C0202D7906267E06003DB
:1002730002031C20000302031CC200C3906282E03D
:100283009471906281E09417400302031C803C1236
:100293000DA74048E47F6D7E06120DAC40089060C8
:1002A30001E064047036300170C201906001E0C364
:1002B30094045003E004F0E4906002F0C204120DD1
:1002C300C740028043C3120DC85006E475F0018095
:1002D3003C906281740BF0A374B8F022120DA74016
:1002E30006906002E0603230012FC2019060027418
:1002F30001F0E4906001F0C204D3906282E09408BC
:10030300906281E09407400874FF75F0FE02038455
:090313009062817407F0A304F06C
:01031C0022BE
:100C9500020E7BE493A3F8E493A34003F68001F2EC
:100CA50008DFF48029E493A3F85407240CC8C33360
:100CB500C4540F4420C8834004F456800146F6DF2F
:100CC500E4800B01020408102040809007BBE47EFD
:100CD500019360BCA3FF543F30E509541FFEE49324
:100CE500A360010ECF54C025E060A840B8E493A3EB
:100CF500FAE493A3F8E493A3C8C582C8CAC583CA16
:100D0500F0A3C8C582C8CAC583CADFE9DEE780BECD
:01089E000059
:10031D00EF8DF0A4A8F0CF8CF0A428CE8DF0A42EF4
:02032D00FE22AE
:10032F00BC000BBE0029EF8DF084FFADF022E4CCB2
:10033F00F875F008EF2FFFEE33FEEC33FCEE9DEC7B
:10034F00984005FCEE9DFE0FD5F0E9E4CEFD22EDC1
:10035F00F8F5F0EE8420D21CFEADF075F008EF2F0B
:10036F00FFED33FD4007985006D5F0F222C398FDFC
:05037F000FD5F0EA2299
:10038400C5F0F8A3E028F0C5F0F8E5821582700204
:060394001583E038F022A1
:0D039A00EF2BFFEE3AFEED39FDEC38FC22B2
:1003A700E88FF0A4CC8BF0A42CFCE98EF0A42CFCF5
:1003B7008AF0EDA42CFCEA8EF0A4CDA8F08BF0A473
:1003C7002DCC3825F0FDE98FF0A42CCD35F0FCEBD2
:1003D7008EF0A4FEA9F0EB8FF0A4CFC5F02ECD3997
:0F03E700FEE43CFCEAA42DCE35F0FDE43CFC2204
:1003F60075F008758200EF2FFFEE33FECD33CDCCBE
:1004060033CCC58233C5829BED9AEC99E582984040
:100416000CF582EE9BFEED9AFDEC99FC0FD5F0D61D
:10042600E4CEFBE4CDFAE4CCF9A88222B800C1B947
:100436000059BA002DEC8BF084CFCECDFCE5F0CB85
:10044600F97818EF2FFFEE33FEED33FDEC33FCEBBE
:1004560033FB10D703994004EB99FB0FD8E5E4F979
:10046600FA227818EF2FFFEE33FEED33FDEC33FC66
:10047600C933C910D7059BE99A4007EC9BFCE99A5A
:10048600F90FD8E0E4C9FAE4CCFB2275F010EF2F9F
:10049600FFEE33FEED33FDCC33CCC833C810D7079F
:1004A6009BEC9AE899400AED9BFDEC9AFCE899F8DA
:0E04B6000FD5F0DAE4CDFBE4CCFAE4C8F9226D
:1004C400EB9FF5F0EA9E42F0E99D42F0E89C45F08E
:0104D4002205
:1004D500E8600FECC313FCED13FDEE13FEEF13FF05
:0304E500D8F12229
:0C04E800E0FCA3E0FDA3E0FEA3E0FF2287
:0C04F400E0F8A3E0F9A3E0FAA3E0FB228B
:0C050000ECF0A3EDF0A3EEF0A3EFF0226E
:10050C00A8828583F0D083D0821205231205231292
:10051C000523120523E473E493A3C583C5F0C583B7
:10052C00C8C582C8F0A3C583C5F0C583C8C582C839
:01053C00229C
:10053D00EC8EF0A4CCC5F0CCCDF8EFA4CEC5F02D4B
:10054D00FDE43CFCE8A42EC8C5F03DFDE43CFCEF09
:0D055D00A4FFE5F028FEE43DFDE43CFC2297
:00000001FF
