:0300000002108566
:0C108500787FE4F6D8FD7581220210CCC3
:0C000300000000000000000000000000F1
:0B153100EF1FAC0670011E4C70F6228C
:10002A00AB07AA06EB1BAE0270011A4E60097FAA43
:08003A007E0512153180ED2254
:100E4F00907120E04480F07F057E00121531E4FFA1
:100E5F00FE12002A75A75575AC589071327450F078
:100E6F009071307403F0907136742FF07F18EF2467
:100E7F0066FDE434718D82F583E4F00FEFB433EE49
:100E8F00904011E4935407FF90711CE054F84FF019
:100E9F00904017E493547FFF90711DE054804FF002
:100EAF00904010E493FF5401C43333335480FE90C9
:100EBF007123E0547F4EF0EFC313543F4440FFA320
:100ECF00E054804FF0904012E493FF540FFE907166
:100EDF0046E054F04EF0EFC4540FFF90714FE054C2
:100EEF00F04FF0904013E493543FFF907140E05463
:100EFF00C04FF0904014E493907126F0904015E4A9
:0E0F0F0093907128F0904016E49390712AF0B0
:010F1D0022B1
:0B153C007379732072657365740A00F8
:08155100E5D430E4FB8FD72242
:1014710078C2E25403F2E24401F290717EE0440446
:0B148100F075D60175D59F75D21022C2
:1011F70075D9DD120E4F75D95590715EE054FEF02A
:1012070075D9BB1214717BFF7A15793C1200B012A5
:1012170014381214DA12148C1212AC1212FA1213B6
:10122700F81213D778D3E254FCF2E24401F290713A
:101237008AE4F0C294120FDE120A9F120F1E1213D5
:10124700369062A5E0FEA3E0FF12118C9062A7EE34
:06125700F0A3EFF080E2BD
:100BBF004262A905DD4262AB05DDC10F4262AD00A5
:0B0BCF00004262A505DD4262A705DDC3
:0A154700E47BDD7A05F9F80204BF29
:1012AC007812E24401F27856E4F278277405F218C9
:1012BC0074DCF27833E4F218F27819E24401F27833
:1012CC0011E24401F27817E24401F27812E244018F
:1012DC00F27814E24401F27818E24401F278D3E295
:0E12EC0054CFF2E24410F290718C740AF0229A
:1014EC00AC06EC7833F218EFF27817E24401F222F2
:0C1519007818E230E0037F01227F0022FE
:0D150C007818E24401F290718C740AF0220C
:0E000F0090718CE4F0D2967818E254FEF22242
:10118C009062687405F0A374DDF0300F0A90626809
:10119C007404F0A374B0F09062BDE0FCA3E0FD1207
:1011AC0005CA121547A804A905AA06AB07906268E0
:1011BC00E0FEA3E0FFE4FCFD120434121547AC067C
:1011CC00AD07D39062AAE09D9062A9E09C5005E027
:1011DC00FCA3E0FDD39062ACE09D9062ABE09C5030
:0A11EC0005E0FCA3E0FDAE04AF0532
:0111F60022D6
:100BDA004162A10042629FFFFF4262A3FFFF42629D
:100BEA009DFFFF4162A20041629200C110416293DF
:100BFA00004162940044629500000000426299003C
:060C0A000042629BFFFFA7
:10136D007FEA7E0BFDFC906268120581C302055178
:10137D00907123E054F8F0E0441EF0907122740750
:10138D00F022E0FF906291E09F906290E09E2290AB
:07139D006294E0C3941422E6
:1014380078F2E24403F278E3E244C0F278F0E2544E
:0D144800FDF208E254FDF208E2440CF2222D
:1014DA0043AA04D2AF786AE24479F27F017E00021D
:0214EA00002AD6
:1013A400EF24FE601914601E24027020907123E063
:1013B40054D8F0E0441D121387759917800E121348
:1013C4007D759919800612137D7599187869E24420
:0313D40048F222BA
:1014C20090629DE0FEA3E0FF7C007D0C1203AA7DEA
:0814D2000A1203BCE4FCFD2238
:100F1E00906268120599000000009062A1E06402E0
:100F2E007003020FDD1214C290626812058D7F32BB
:100F3E007E337D017C001213734003020FDD90623D
:040F4E00A1E0702886
:100F520012136D5008906292E004F08005E49062F2
:100F620092F0906292E0C3940AE44007F09062A18A
:080F720004F0229062A1F022BC
:080F7A009062A1E06401705BCC
:100F820020100FD2109062B51205990000000012D5
:100F92001525E47F307E75FDFC9062B51213764014
:010FA2003A14
:100FA300E412136D5008906293E004F08005E4901E
:100FB3006293F0906293E0C3940A4018E4F0906265
:100FC300A17402F01214FC9062B51205990000009E
:0A0FD30000C210229062A17401F028
:010FDD0022F1
:101336009062A1E0700D300E2DC20ED29412069569
:10134600C294229062A1E0B4010B9062A97402F0EB
:10135600A374EEF0229062A1E0B4020A9062A9742E
:0713660001F0A37477F022EF
:0300420002096E42
:10096E00C0E0C0F0C083C082C0D075D000C000C04F
:10097E0001C002C003C004C005C006C007786BE208
:06098E0020E103020A84CF
:10099400AF93EF75F010A4FFE594C4540FFDEF4D31
:1009A400FF906290E5F0F0A3EFF0E24402F290626F
:0909B400A2E064026003020A5B88
:1009BD0012139C505EE004F0E0C39402404A906232
:1009CD0099E0FEA3D312138F400CE0FFA3E09062D9
:1009DD0099CFF0A3EFF090629BE0FEA3C312138FAB
:1009ED00500CE0FFA3E090629BCFF0A3EFF090627C
:1009FD0095120581906290E0FEA3E0FFE4FCFD12EC
:100A0D00042790629512058D12139C50067869E2A9
:100A1D004401F212139C405FA31205757804120570
:100A2D006290629FEEF0A3EFF09062A27403F090DB
:100A3D006294E4F0906299F0A3F090629B74FFF0E1
:0C0A4D00A3F090629512059900000000D3
:100A590080299062A2E0B4050C906290E0FFA3E0C7
:100A69009062A380119062A2E0B4070F906290E0B7
:0B0A7900FFA3E090629DCFF0A3EFF020
:100A8400D007D006D005D004D003D002D001D000C6
:0B0A9400D0D0D082D083D0F0D0E03270
:10148C0043A820D2AF75D10178957401F218747607
:0B149C00F2789174A0F21874FDF222A7
:03001E0002145574
:10145500C0E0C0D075D000C0007891E230E706E268
:0C1465004480F2D20CD000D0D0D0E03295
:070C10004462B50000000082
:08155900789CE2541FF2E2222B
:1012FA00E5B154CF42B1789CE254E3F2E24414F2ED
:10130A00E254FCF2E24401F208E24480F2E24420B0
:10131A00F278A1743BF2187460F2789EE4F208F253
:0C132A0012155944A0F253A8BFD2AF2204
:0C15250012155944C0F243A840D2AF2276
:1014FC0012155944A0F2789EE4F208F253A8BF22C8
:0300210002125D6B
:10125D00C0E0C0F0C083C082C0D075D000C000C057
:10126D0004C005C006C007789DE230E71DE244804A
:10127D00F29062B5120575EF2401FFE43EFEE43DE8
:10128D00FDE43CFC9062B512058DD007D006D0056B
:0F129D00D004D000D0D0D082D083D0F0D0E032B7
:090C1700C109C10A4262B30000E8
:1014A7009062ADE0FEA3E0FF22E475F001020411B3
:0B14B7009062A8E09F9062A7E09E22D8
:1013F80043A901D2AF75D104907105E4F09071044E
:101408007424F090710174A0F090710074FDF022C2
:03002400020C9C2F
:100C9C00C0E0C0F0C083C082C0D075D000C000C01E
:100CAC0001C002C003C004C005C006C0079071019A
:100CBC00E020E703020D5BE04480F09062AF121479
:100CCC00B09062B11214B09062B31214B0C39062BF
:100CDC00B2E0940D9062B1E094004006E4F0A3F011
:100CEC00D20AC39062B0E0940D9062AFE0940040E1
:100CFC0006E4F0A3F0D209C39062B4E094149062BD
:100D0C00B3E094004049E4F0A3F0200B421214A786
:100D1C00D31214B740099062ADE475F00180101243
:100D2C0014A7C31214B7500A9062AD74FFF5F012F9
:100D3C0004111214A71214ECD39062AEE09400903C
:100D4C0062ADE09400500512000F800312150CD018
:100D5C0007D006D005D004D003D002D001D000D0EB
:0A0D6C00D0D082D083D0F0D0E03266
:070C20004262BD05DDC111B8
:10141800E0FEA3E0FF1205CA7B0AE4FAF9F8120419
:10142800BFE422906269E094DD906268E09404224F
:100A9F00E4906268F0A3F09062A3E0FFA3E090629D
:100AAF0068CFF0A3EFF0906268E0F47003A3E0F476
:100ABF007003020BBE301103020BB6D3906269E0D4
:100ACF0094EA906268E09401500AE49062BDF0A34A
:100ADF00F0020BA9D312142B5029E0FEA3E0FFEF75
:100AEF002416FFEE34FEFEE434FFFDE434FFFCE495
:100AFF007BBA7A0BF9F81204341214207BDD7A04D6
:100B0F00020B90D3906269E094EE906268E09408D3
:100B1F00500E7C177D741214187BEE7A08020B901E
:100B2F00D3906269E09412906268E0940B5017E0E2
:100B3F00FEA3E0FF7C057DDD1205CA7B02121422A5
:100B4F007B127A0B803BD3906269E094BC90626811
:100B5F00E0940C500D7C237D2E1214187BBC7A0C64
:100B6F00801FD3906269E09491906268E0940F5077
:100B7F001FE0FEA3E0FF7C2E7DE812141D7B917A0F
:100B8F000FF9F81204BF9062BDEEF0A3EFF0800AE8
:100B9F009062BD7405F0A374DDF09062BDE0700249
:0F0BAF00A3E0700BD21122C312142B4002C2110B
:010BBE002214
:0B0C2700C10B4462B900000000C10CCA
:100FDE00E49062ADF0A3F0D20B120A9F9062BDE0D6
:100FEE00FEA3E0FFC39062AEE09F9062ADE09E5024
:100FFE0065300C55C20C9062B9120575EF24BBFF1B
:10100E00E43EFEE43DFDE43CFC9062B912058DE445
:10101E007FE87E03FDFC9062B9120581C312055173
:10102E0040279062B9120575C3EF94E8FFEE940362
:10103E00FEED9400FDEC9400FC9062B912058D90CB
:10104E0062ADE475F0011204119062ADE0FEA3E012
:10105E00FF1214EC80839062ADE0FFA3E09062A5D6
:10106E00CFF0A3EFF09062ADE0FFA3E09062A7CFC8
:07107E00F0A3EFF0C20B220A
:040C32004162C0015A
:071561007869E24401F22267
:1013D70043A902D2AF75D10890710D7401F09071D5
:1013E7000C745DF090710974A0F090710874FDF0B1
:0113F70022D3
:03002700020D7651
:100D7600C0E0C0F0C083C082C0D075D000C000C043
:100D860001C002C003C004C005C006C007907109B7
:0E0D9600E020E703020E34907109E04480F083
:100DA4009062BFE004F0E0C39408400AA3E0600648
:100DB400E4F09062A2F09062BFE0C3940A4007E4BA
:060DC400F0D20EA304F0C2
:100DCA009062A2E06004E0B4070D7F011213A490C0
:100DDA0062A27401F080539062A2E0B40108121575
:100DEA00617402F080449062A2E0B4030D7F0212A3
:100DFA0013A49062A27404F080309062A2E0B4045A
:100E0A00081215617405F080219062A2E0B4050D04
:100E1A007F031213A49062A27406F0800D9062A25E
:100E2A00E0B406061215617407F0D007D006D005A3
:100E3A00D004D003D002D001D000D0D0D082D08349
:050E4A00D0F0D0E03201
:100C360042600300004262650000426263100041A8
:100C460062670060406005FFFF00000000000000D2
:100C5600000000000000000000000000000000008E
:100C6600000000000000000000000000000000007E
:100C7600000000000000000000000000000000006E
:100C860000000000000000416000004160010041DA
:050C9600600200C10D29
:10111100EF25E0FFEE33FE74472FF58274603EF554
:1011210083227FC37E05E4FDFC906268120581D3B2
:10113100020551ECF0A3EDF090626EE475F001024E
:101141000411D39062ACE094EE9062ABE094022281
:1011510090626EE0FEA3E0FFC322906000E025E014
:101161002405F582E43460F58322E490626EF0A3F5
:10117100F02233FE74052FF58274603EF5832290D0
:0B118100626FE025E0FF90626EE0224C
:100695009062681205990000000090629FE0FFA338
:1006A500E090626CCFF0A3EFF090626CE0F4700321
:1006B500A3E0F4700302096D906005E0F47003A3F4
:0406C500E0F4703FAE
:1006C90012116C1211519420EE9400501590626C25
:1006D900E0FCA3E0FDEF25E0FFEE121173121134E7
:1006E90080E112116B121151940EEE940150599040
:0F06F900626CE0FCA3E0FD12111112113480E6D7
:1007080012115BE0FFA3E090626ECFF0A3EFF090D0
:10071800626CE0FEA3E0FF90626EEE8FF0120411AF
:1007280090626EE0C313FEA3E013FF90626EEEF0DA
:10073800A3EFF012115BEEF0A3EFF0906000E0047D
:09074800F0E0C394204002E4F04B
:1007510012116B906268120581121180121173E0FF
:10076100FEA3E0FFE4FCFD12042790626812058DF0
:1007710012113990626EE07004A3E0642070D4908D
:100781006268120575780512056290626812058D1E
:10079100906268120575AD07AC06906046E025E0F1
:1007A100FF906045E033FE74472FF58274603EF59B
:1007B10083ECF0A3EDF090604512113CC3906046CC
:0F07C100E0940E906045E094014004E4F0A3F052
:1007D00012116B906265F0A3F09062637410F0A345
:1007E000E4F0121151940EEE9401400302087312CA
:1007F0001111E0FCA3E0FD906265E0FAA3E0FBD3F9
:10080000ED9BEC9A400F121118E0FFA3E090626597
:10081000CFF0A3EFF0121180121116E0FCA3E0FD5F
:10082000906263E0FAA3E0FBC3ED9BEC9A500F12D9
:100830001118E0FFA3E0906263CFF0A3EFF09062A5
:1008400063E0FEA3E0FFC3906266E09FFF906265F5
:10085000E09EFED3EF9450EE9400400890626774DF
:100860001EF08009906267E06003E014F012113915
:030870000207E29A
:10087300E47F8B7E06FDFC906268120581C312053E
:1008830051500C300D597F8B7E061211274050E4D6
:10089300906001F0A3F0D20D906267E0B41E1BE0FC
:1008A30014F0121143400774FFF5F0120411C31240
:1008B3001144400302096D020927906267E0600357
:1008C30002096D20090302096DC209C39062ACE0FD
:1008D30094DD9062ABE09405400302096D803C1205
:1008E30011234048E47F6D7E061211284008906072
:1008F30001E064047036300A71C20A906001E0C3FB
:1009030094045003E004F0E4906002F0C20D12116D
:100913004340028043C31211445006E475F0018042
:100923003C9062AB7402F0A374EEF02212112340E8
:1009330006906002E06033300A30C20A90600274AD
:1009430001F0E4906001F0C20DD39062ACE094C278
:100953009062ABE09401400874FF75F0FE0204114D
:0A0963009062AB7401F0A374C2F0BF
:01096D002267
:101091000211F7E493A3F8E493A34003F68001F26D
:1010A10008DFF48029E493A3F85407240CC8C33360
:1010B100C4540F4420C8834004F456800146F6DF2F
:1010C100E4800B0102040810204080900BBFE47EF5
:1010D100019360BCA3FF543F30E509541FFEE49324
:1010E100A360010ECF54C025E060A840B8E493A3EB
:1010F100FAE493A3F8E493A3C8C582C8CAC583CA16
:10110100F0A3C8C582C8CAC583CADFE9DEE780BECD
:010C9B000058
:1003AA00EF8DF0A4A8F0CF8CF0A428CE8DF0A42E67
:0203BA00FE2221
:1003BC00BC000BBE0029EF8DF084FFADF022E4CC25
:1003CC00F875F008EF2FFFEE33FEEC33FCEE9DECEE
:1003DC00984005FCEE9DFE0FD5F0E9E4CEFD22ED34
:1003EC00F8F5F0EE8420D21CFEADF075F008EF2F7E
:1003FC00FFED33FD4007985006D5F0F222C398FD6F
:05040C000FD5F0EA220B
:10041100C5F0F8A3E028F0C5F0F8E5821582700276
:060421001583E038F02213
:0D042700EF2BFFEE3AFEED39FDEC38FC2224
:10043400E88FF0A4CC8BF0A42CFCE98EF0A42CFC67
:100444008AF0EDA42CFCEA8EF0A4CDA8F08BF0A4E5
:100454002DCC3825F0FDE98FF0A42CCD35F0FCEB44
:100464008EF0A4FEA9F0EB8FF0A4CFC5F02ECD3909
:0F047400FEE43CFCEAA42DCE35F0FDE43CFC2276
:1004830075F008758200EF2FFFEE33FECD33CDCC30
:1004930033CCC58233C5829BED9AEC99E5829840B3
:1004A3000CF582EE9BFEED9AFDEC99FC0FD5F0D690
:1004B300E4CEFBE4CDFAE4CCF9A88222B800C1B9BA
:1004C3000059BA002DEC8BF084CFCECDFCE5F0CBF8
:1004D300F97818EF2FFFEE33FEED33FDEC33FCEB31
:1004E30033FB10D703994004EB99FB0FD8E5E4F9EC
:1004F300FA227818EF2FFFEE33FEED33FDEC33FCD9
:10050300C933C910D7059BE99A4007EC9BFCE99ACC
:10051300F90FD8E0E4C9FAE4CCFB2275F010EF2F11
:10052300FFEE33FEED33FDCC33CCC833C810D70711
:100533009BEC9AE899400AED9BFDEC9AFCE899F84C
:0E0543000FD5F0DAE4CDFBE4CCFAE4C8F922DF
:10055100EB9FF5F0EA9E42F0E99D42F0E89C45F000
:010561002277
:10056200E8600FECC313FCED13FDEE13FEEF13FF77
:03057200D8F1229B
:0C057500E0FCA3E0FDA3E0FEA3E0FF22F9
:0C058100E0F8A3E0F9A3E0FAA3E0FB22FD
:0C058D00ECF0A3EDF0A3EEF0A3EFF022E1
:10059900A8828583F0D083D0821205B01205B012EB
:1005A90005B01205B0E473E493A3C583C5F0C58310
:1005B900C8C582C8F0A3C583C5F0C583C8C582C8AC
:0105C900220F
:1005CA00EC8EF0A4CCC5F0CCCDF8EFA4CEC5F02DBE
:1005DA00FDE43CFCE8A42EC8C5F03DFDE43CFCEF7C
:0D05EA00A4FFE5F028FEE43DFDE43CFC220A
:10004500E508246BF582E43462F583E00508229027
:10005500626830070390626BE475F00112064F0287
:1000650005F72000E97F2ED2008018EF540F249069
:10007500D43440D4FF30040BEF24BFB41A0050032E
:100085002461FFE50960021509050CE50C70020500
:100095000B30070E906268E475F00112064FEF020F
:1000A500063D0215517403D2078003E4C207F50823
:1000B500906268120666E4F509F50BF50CE5096032
:1000C500077F2012008880F5750AFFC201C200C2B1
:1000D50002C203C205C206C208120054FF700D30E9
:1000E50007057F00120099AF0CAE0B22B4255FC245
:1000F500D5C204120054FF24D0B40A00501A75F07A
:100105000A780930D50508B6FF0106C6A426F620EB
:10011500D5047002D20380D924CFB41A00EF50045D
:10012500C2E5D20402029AD20180C6D20080C0D2B2
:100135000280BCD2D580BAD20580B47F2012008857
:100145002002077401B5090040F1120045FF1200B5
:10015500880200C2D208D2068095120045FB120023
:1001650045FA120045F94A4B7006796B7A037BFF15
:1001750020022EE509602A7E008E82758300120614
:100185001060060EEE650A70F0C2D5EBC0E0EAC05D
:10019500E0E9C0E0EE1202E1D0E0F9D0E0FAD0E00B
:1001A500FB1205F7FF60AAEBC0E0EAC0E0E9C0E09A
:1001B500120088D0E02401F9D0E03400FAD0E0FB49
:1001C500E50A0460DCD50AD980877BFF7A0279DDF0
:1001D500D202809C791080027908C206C208800884
:1001E500D2D5790A8004790AC2D5E50A047002F5E8
:1001F5000AE4FAFDFEFF120045FC7B0820011312FC
:100205000045FD7B1030000A120045FE120045FF37
:100215007B20EC3382D592D55013C3E43000069F82
:10022500FFE49EFEE42001039DFDE49CFCE4CBF885
:10023500C201EC700CCFCECDCCE824F8F870F38079
:1002450017C3EF33FFEE33FEED33FDEC33FCEB3339
:10025500FB994002FB0FD8E9EB300105F8D0E0C46B
:1002650048B201C0E00AEC4D4E4F78207B0070C2C9
:10027500EAB50A0040BCC0E01202E3D0F0D0E020AD
:100285000104C4C0E0C4B201C0F0120071D0F0D5C1
:10029500F0EB0200C212066F015F5301D95801301D
:1002A5004C012C4201DD4F01E54401E5490145437F
:0802B50001EB5501CF4601CF1A
:1002BD004501CF47038B5001342D01382E015B2BA7
:1002CD00013C2301592003742A00F4480000015316
:1002DD003F3F3F00790AA2D5200314300509B9101C
:1002ED00020404B9080104A2D5200602500104201D
:1002FD0002689202B509005034C0E07F2030031926
:10030D007F30A20272067205500F12033AC202C26A
:10031D0006C205C2087F30800F300503E9C0E01228
:10032D000088300503D0E0F9D0E0B509CC300517D1
:10033D007F30B9100C1200887F583004077F788009
:10034D0003B908031200883002057F2D0200887F53
:10035D00202008F87F2B2006F322920280CF286EF2
:10036D00756C6C2900D2011200453001F8C201787C
:10037D000930D50108F60200F42D504349581200FA
:10038D00452403B405004001E490038693120079DF
:0D039D00743A120079D2037509040201D9E7
:1005F700BB010689828A83E0225002E722BBFE0202
:09060700E32289828A83E4932234
:10061000BB010CE58229F582E5833AF583E022509F
:1006200006E92582F8E622BBFE06E92582F8E222E9
:0D063000E58229F582E5833AF583E4932203
:10063D00BB010689828A83F0225002F722BBFE019C
:02064D00F32296
:10064F00F8E0FBA3A3E0F925F0F0E5821582700234
:07065F001583E0FA38F022D8
:09066600EBF0A3EAF0A3E9F02295
:10066F00D083D082F8E4937012740193700DA3A31A
:10067F0093F8740193F5828883E47374029368602E
:06068F00EFA3A3A380DF2E
:00000001FF
