:030000000212B633
:0C12B600787FE4F6D8FD7581220212FD5D
:0C000300000000000000000000000000F1
:0B16B000EF1FAC0670011E4C70F6220C
:10002A00AB07AA06EB1BAE0270011A4E60097FAA43
:08003A007E051216B080ED22D4
:10112500907120E04480F07F057E001216B0E4FF48
:10113500FE12002A75A75575AC589071327450F09F
:101145009071307403F0907136742FF07F18EF248E
:1011550066FDE434718D82F583E4F00FEFB433EE70
:10116500904011E4935407FF90711CE054F84FF040
:10117500904017E493547FFF90711DE054804FF029
:10118500904010E493FF5401C43333335480FE90F0
:101195007123E0547F4EF0EFC313543F4440FFA347
:1011A500E054804FF0904012E493FF540FFE90718D
:1011B50046E054F04EF0EFC4540FFF90714FE054E9
:1011C500F04FF0904013E493543FFF907140E0548A
:1011D500C04FF0904014E493907126F0904015E4D0
:0E11E50093907128F0904016E49390712AF0D8
:0111F30022D9
:0B16BB007379732072657365740A0078
:0816C600E5D430E4FB8FD722CC
:1016030078C2E25403F2E24401F290717EE04404B2
:0B161300F075D60175D59F75D210222E
:1013BB0075D9DD12112575D95590715EE054FEF08B
:1013CB0075D9BB1216037BFF7A1679BB1205051272
:1013DB0015CA12166512161E1214C91215171215FC
:1013EB00AA12158978D3E254FCF2E24401F290710F
:1013FB008AE4F0C2941211F4120C1A120E8B12150D
:10140B00579062A5E0FEA3E0FF1213429062A7EE95
:06141B00F0A3EFF080E2F7
:101052004262A905DD4262AB05DDC10F4262AD000D
:0B106200004262A505DD4262A705DD2B
:1014C9007812E24401F27856E4F278277405F218AA
:1014D90074DCF27833E4F218F27819E24401F27814
:1014E90011E24401F27817E24401F27812E2440170
:1014F900F27814E24401F27818E24401F278D3E276
:0E15090054CFF2E24410F290718C740AF0227A
:10167700AC06EC7833F218EFF27817E24401F22265
:0C16A4007818E230E0037F01227F002272
:0D1697007818E24401F290718C740AF02280
:0E000F0090718CE4F0D2967818E254FEF22242
:101342009062687405F0A374DDF0300F0A90626851
:101352007404F0A374B0F09062BDE0FCA3E0FD124F
:1013620009E4E47BDD7A05F9F81208F1A804A9057D
:10137200AA06AB07906268E0FEA3E0FFE4FCFD1260
:101382000866E47BDD7A05F9F81208F1AC06AD07D0
:10139200D39062AAE09D9062A9E09C5005E0FCA374
:1013A200E0FDD39062ACE09D9062ABE09C5005E022
:0813B200FCA3E0FDAE04AF0551
:0113BA002210
:10106D004162A10042629F0FFF4162A20041629264
:10107D0000C11041629300416294004462950000EA
:0C108D000000426299000042629BFFFFDD
:1015CA0078F2E24403F278E3E244C0F278F0E254BB
:0D15DA00FDF208E254FDF208E2440CF2229A
:1016650043AA04D2AF786AE24479F27F017E000290
:02167500002A49
:10147600EF24FE601D14603024027040907123E05A
:1014860054D8F0E0441DF09071227407F075991756
:10149600802A907123E054F8F0E0441EF090712207
:1014A6007407F07599198014907123E054F8F0E0F0
:1014B600441EF09071227407F07599187869E24419
:0314C60048F222C7
:1016390090629DE0FEA3E0FF7C007D0C1207FF7D18
:081649000A120811E4FCFD2265
:100E8B009062681209B3000000009062A1E0640256
:100E9B007003020F6F1216399062681209A79062E5
:040EAB00A1E0703D15
:100EAF007FEA7E0BFDFC906268E0F8A3E0F9A3E017
:100EBF00FAA3E0FBC31209835008906292E004F09A
:100ECF008005E4906292F0906292E0C3940AE4404D
:0D0EDF0007F09062A104F0229062A1F022C1
:080EEC009062A1E06401707B3B
:100EF40020100FD2109062B51209B3000000001246
:100F04001687E47F307E75FDFC9062B5E0F8A3E0BF
:0D0F1400F9A3E0FAA3E0FBC3120983404EED
:100F2100E47FEA7E0BFDFC906268E0F8A3E0F9A3A0
:100F3100E0FAA3E0FB1209835008906293E004F009
:100F41008005E4906293F0906293E0C3940A4018A4
:100F5100E4F09062A17402F01216519062B5120988
:0E0F6100B300000000C210229062A17401F0E3
:010F6F00225F
:101557009062A1E07008300E28C20E02004590622A
:10156700A1E0B4010B9062A97402F0A374EEF0221B
:101577009062A1E0B4020A9062A97401F0A37477A3
:02158700F02250
:03004200020AAF00
:100AAF00C0E0C0F0C083C082C0D075D000C000C00D
:100ABF0001C002C003C004C005C006C007786BE2C6
:060ACF0020E103020BFF11
:100AD500AF93EF75F010A4FFE594C4540FFDEF4DEF
:100AE500FF906290E5F0F0A3EFF0E24402F290622D
:090AF500A2E064026003020BD6CA
:100AFE00906294E0C394144003020B8FE004F0E084
:100B0E00C39402406D906299E0FEA3E0FFD3906221
:100B1E0091E09F906290E09E400CE0FFA3E0906217
:100B2E0099CFF0A3EFF090629BE0FEA3E0FFC3909D
:100B3E006291E09F906290E09E500CE0FFA3E090E7
:100B4E00629BCFF0A3EFF0906295E0F8A3E0F9A3DB
:100B5E00E0FAA3E0FB906290E0FEA3E0FFE4FCFD70
:100B6E00EB2FFFEA3EFEED39FDEC38FC906295125C
:100B7E0009A7906294E0C3941450067869E2440188
:100B8E00F2906294E0C394144067A3E0FCA3E0FDEE
:100B9E00A3E0FEA3E0FF780412099490629FEEF0AA
:100BAE00A3EFF09062A27403F0906294E4F090626E
:100BBE0099F0A3F090629B74FFF0A3F090629512EF
:060BCE0009B30000000065
:100BD40080299062A2E0B4050C906290E0FFA3E04B
:100BE4009062A380119062A2E0B4070F906290E03B
:0B0BF400FFA3E090629DCFF0A3EFF0A4
:100BFF00D007D006D005D004D003D002D001D0004A
:0B0C0F00D0D0D082D083D0F0D0E032F3
:10161E0043A820D2AF75D10178957401F218747673
:0B162E00F2789174A0F21874FDF22213
:03001E000215E7E1
:1015E700C0E0C0D075D000C0007891E230E706E2D5
:0C15F7004480F2D20CD000D0D0D0E03202
:071099004462B500000000F5
:10151700E5B154CF42B1789CE254E3F2E24414F2CD
:10152700E254FCF2E24401F208E24480F2E2442091
:10153700F278A1743BF2187460F2789EE4F208F234
:10154700789CE2541FF2E244A0F253A8BFD2AF2224
:10168700789CE2541FF2E244C0F243A840D2AF2252
:10165100789CE2541FF2E244A0F2789EE4F208F290
:0416610053A8BF22A9
:03002100021421A5
:10142100C0E0C0F0C083C082C0D075D000C000C091
:1014310004C005C006C007789DE230E723E244807E
:10144100F29062B5E0FCA3E0FDA3E0FEA3E024017D
:10145100FFE43EFEE43DFDE43CFC9062B51209A7C9
:10146100D007D006D005D004D000D0D0D082D08310
:05147100D0F0D0E032D4
:0910A000C109C10A4262B300005B
:1015AA0043A901D2AF75D104907105E4F09071049A
:1015BA007424F090710174A0F090710074FDF0220F
:03002400020D7159
:100D7100C0E0C0F0C083C082C0D075D000C000C048
:100D810001C002C003C004C005C006C007907101C4
:100D9100E020E703020E70E04480F09062B0E004CE
:100DA100F070069062AFE004F09062B2E004F0707F
:100DB100069062B1E004F09062B4E004F070069035
:100DC10062B3E004F0C39062B2E0940D9062B1E0CE
:100DD10094004006E4F0A3F0D20AC39062B0E0941C
:100DE1000D9062AFE094004006E4F0A3F0D209C395
:100DF1009062B4E094149062B3E094004071E4F026
:100E0100A3F0200B6A9062ADE0FEA3E0FFD39062F5
:100E1100A8E09F9062A7E09E40109062AEE004F0CF
:100E2100702B9062ADE004F080239062ADE0FEA3F0
:100E3100E0FFC39062A8E09F9062A7E09E500E90F1
:100E410062AEE024FFF09062ADE034FFF09062AD5D
:100E5100E0FEA3E0FF121677D39062AEE09400901B
:100E610062ADE09400500512000F8003121697D076
:100E710007D006D005D004D003D002D001D000D0D5
:0A0E8100D0D082D083D0F0D0E03250
:0710A9004262BD05DDC1112B
:100C1A00E4906268F0A3F09062A3E0FFA3E0906220
:100C2A0068CFF0A3EFF0301103020D5FD390626931
:100C3A00E094EA906268E09401500AE49062BDF0A0
:100C4A00A3F0020D52D3906269E094DD906268E0ED
:100C5A0094045030E0FEA3E0FFEF2416FFEE34FECA
:100C6A00FEE434FFFDE434FFFCE47BBA7A0BF9F8C6
:100C7A00120866E47B0AFAF9F81208F1E47BDD7AD5
:100C8A0004020D39D3906269E094EE906268E094B0
:100C9A0008501DE0FEA3E0FF7C177D741209E4E40E
:100CAA007B0AFAF9F81208F1E47BEE7A08020D39A8
:100CBA00D3906269E09412906268E0940B501CE051
:100CCA00FEA3E0FF7C057DDD1209E4E47B02FAF96C
:100CDA00F81208F1E47B127A0B8054D3906269E02F
:100CEA0094BC906268E0940C501CE0FEA3E0FF7C88
:100CFA00237D2E1209E4E47B0AFAF9F81208F1E4DA
:100D0A007BBC7A0C8029D3906269E09491906268E6
:100D1A00E0940F5029E0FEA3E0FF7C2E7DE8120943
:100D2A00E4E47B0AFAF9F81208F1E47B917A0FF904
:100D3A00F81208F19062BDEEF0A3EFF0800A90621B
:100D4A00BD7405F0A374DDF09062BDE07002A3E00B
:100D5A007014D21122C3906269E094DD906268E057
:060D6A0094044002C211D6
:010D70002260
:0B10B000C10B4462B900000000C10C3D
:1011F400E49062ADF0A3F0D20B120C1A9062BDE041
:10120400FEA3E0FFC39062AEE09F9062ADE09E401B
:1012140003021295300C6CC20C9062B9E0FCA3E09E
:10122400FDA3E0FEA3E024BBFFE43EFEE43DFDE4B9
:101234003CFC9062B91209A7E47FE87E03FDFC90B0
:1012440062B9E0F8A3E0F9A3E0FAA3E0FBC3120952
:101254008340309062B9E0FCA3E0FDA3E0FEA3E08C
:1012640094E8FFEE9403FEED9400FDEC9400FC90F2
:1012740062B91209A79062AEE004F070069062AD04
:10128400E004F09062ADE0FEA3E0FF1216770211D5
:10129400FD9062ADE0FFA3E09062A5CFF0A3EFF074
:1012A4009062ADE0FFA3E09062A7CFF0A3EFF0C29D
:0212B4000B220B
:0410BB004162C001CD
:1015890043A902D2AF75D10890710D7401F0907121
:101599000C745DF090710974A0F090710874FDF0FD
:0115A900221F
:03002700020F7055
:100F7000C0E0C0F0C083C082C0D075D000C000C047
:100F800001C002C003C004C005C006C007907109BB
:0E0F9000E020E703021037907109E04480F082
:100F9E009062BFE004F0E0C39408400AA3E060064C
:100FAE00E4F09062A2F09062BFE0C3940A4007E4BE
:060FBE00F0D20EA304F0C6
:100FC4009062A2E06004E0B4070D7F0112147690F1
:100FD40062A27401F0805C9062A2E0B4010B7869B3
:100FE400E24401F27402F0804A9062A2E0B4030D7C
:100FF4007F021214769062A27404F080369062A28A
:10100400E0B4040B7869E24401F27405F0802490A2
:1010140062A2E0B4050D7F031214769062A27406F6
:10102400F080109062A2E0B406097869E24401F20B
:101034007407F0D007D006D005D004D003D002D076
:0E10440001D000D0D0D082D083D0F0D0E032E6
:1010BF00426003000042626500004262631000411B
:1010CF0062670060406005FFFF0000000000000045
:1010DF000000000000000000000000000000000001
:1010EF0000000000000000000000000000000000F1
:1010FF0000000000000000000000000000000000E1
:10110F00000000000000004160000041600100414C
:05111F00600200C10D9B
:100045009062681209B30000000090629FE0FFA370
:10005500E090626CCFF0A3EFF0906005E0F47003E0
:08006500A3E0F460030200F9BE
:10006D0090626EF0A3F090626EE0FEA3E0FFC39489
:10007D0020EE9400502E90626CE0FCA3E0FDEF2585
:10008D00E0FFEE33FE74052FF58274603EF583ECD0
:10009D00F0A3EDF090626FE004F070CA90626EE034
:1000AD0004F080C2E490626EF0A3F090626EE0FE08
:1000BD00A3E0FFC3940EEE9401400302015A906237
:1000CD006CE0FCA3E0FDEF25E0FFEE33FE74472F5F
:1000DD00F58274603EF583ECF0A3EDF090626FE075
:0C00ED0004F070C790626EE004F080BF69
:1000F900906000E025E02405F582E43460F583E0B2
:10010900FFA3E090626ECFF0A3EFF090626CE0FE87
:10011900A3E0FF90626FE02FF090626EE03EF0E0A6
:10012900C313FEA3E013FF90626EEEF0A3EFF0900D
:100139006000E025E02405F582E43460F583EEF003
:10014900A3EFF0906000E004F0E0C394204002E4E3
:01015900F0B5
:10015A00E490626EF0A3F0906268E0F8A3E0F9A37D
:10016A00E0FAA3E0FB90626FE025E0FF90626EE0A8
:10017A0033FE74052FF58274603EF583E0FEA3E03A
:10018A00FFE4FCFDEB2FFFEA3EFEED39FDEC38FC07
:10019A009062681209A790626FE004F0700690629C
:1001AA006EE004F090626EE07004A3E0642070A731
:1001BA00906268E0FCA3E0FDA3E0FEA3E0FF7805FF
:0901CA001209949062681209A761
:1001D300906268A3A3E0FEA3E0FDAC06906046E056
:1001E30025E0FF906045E033FE74472FF58274608D
:1001F3003EF583ECF0A3EDF0906046E004F070066A
:10020300906045E004F0C3906046E0940E90604532
:09021300E094014004E4F0A3F0C2
:10021C00E490626EF0A3F0906265F0A3F0906263DC
:10022C007410F0A3E4F090626EE0FEA3E0FFC394C0
:10023C000EEE94014003020301EF25E0FFEE33FEC6
:10024C0074472FF58274603EF583E0FCA3E0FD90CB
:10025C006265E0FAA3E0FBD3ED9BEC9A4016744781
:10026C002FF58274603EF583E0FFA3E0906265CFCA
:10027C00F0A3EFF090626FE025E0FF90626EE03348
:10028C00FE74472FF58274603EF583E0FCA3E0FD1D
:10029C00906263E0FAA3E0FBC3ED9BEC9A501674FA
:1002AC00472FF58274603EF583E0FFA3E090626314
:1002BC00CFF0A3EFF0906263E0FEA3E0FFC3906287
:1002CC0066E09FFF906265E09EFED3EF9450EE9443
:1002DC00004008906267741EF08009906267E060CD
:1002EC0003E014F090626FE004F0700690626EE030
:0502FC0004F0020232D3
:10030100E47F8B7E06FDFC906268E0F8A3E0F9A330
:10031100E0FAA3E0FBC31209835020200D0302037E
:10032100AFE47F8B7E06FDFC906268E0F8A3E0F904
:10033100A3E0FAA3E0FB1209834073E4906001F0AB
:10034100A3F0D20D906267E0B41E33E014F0D390B5
:1003510062ACE094EE9062ABE09402400CA3E02426
:10036100FFF09062ABE034FFF0C39062ACE094EE3A
:100371009062ABE094024003020499020438906257
:1003810067E06003020499200903020499C209C3CA
:100391009062ACE094DD9062ABE09405400302040E
:1003A10099A3E004F070069062ABE004F022E47FD0
:1003B100C37E05FDFC906268E0F8A3E0F9A3E0FAD2
:1003C100A3E0FBD31209834076E47F6D7E06FDFC3A
:1003D100906268E0F8A3E0F9A3E0FAA3E0FBD3128E
:1003E10009834008906001E064047053200A03020D
:1003F1000499C20A906001E0C394045003E004F040
:10040100E4906002F0C20DD39062ACE094EE906291
:10041100ABE0940240028069C39062ACE094EE903C
:1004210062ABE09402500DA3E004F070069062AB61
:10043100E004F0229062AB7402F0A374EEF022E4C7
:100441007FC37E05FDFC906268E0F8A3E0F9A3E0BC
:10045100FAA3E0FBD31209834006906002E0603802
:10046100300A35C20A9060027401F0E4906001F034
:10047100C20DD39062ACE094C29062ABE0940140B3
:100481000DA3E024FEF09062ABE034FFF022906215
:08049100AB7401F0A374C2F08A
:010499002240
:1012C2000213BBE493A3F8E493A34003F68001F274
:1012D20008DFF48029E493A3F85407240CC8C3332D
:1012E200C4540F4420C8834004F456800146F6DFFC
:1012F200E4800B0102040810204080901052E47E2A
:10130200019360BCA3FF543F30E509541FFEE493F0
:10131200A360010ECF54C025E060A840B8E493A3B7
:10132200FAE493A3F8E493A3C8C582C8CAC583CAE2
:10133200F0A3C8C582C8CAC583CADFE9DEE780BE9A
:0111240000CA
:1007FF00EF8DF0A4A8F0CF8CF0A428CE8DF0A42E0E
:02080F00FE22C7
:10081100BC000BBE0029EF8DF084FFADF022E4CCCB
:10082100F875F008EF2FFFEE33FEEC33FCEE9DEC94
:10083100984005FCEE9DFE0FD5F0E9E4CEFD22EDDA
:10084100F8F5F0EE8420D21CFEADF075F008EF2F24
:10085100FFED33FD4007985006D5F0F222C398FD15
:050861000FD5F0EA22B2
:10086600E88FF0A4CC8BF0A42CFCE98EF0A42CFC31
:100876008AF0EDA42CFCEA8EF0A4CDA8F08BF0A4AF
:100886002DCC3825F0FDE98FF0A42CCD35F0FCEB0E
:100896008EF0A4FEA9F0EB8FF0A4CFC5F02ECD39D3
:0F08A600FEE43CFCEAA42DCE35F0FDE43CFC2240
:1008B50075F008758200EF2FFFEE33FECD33CDCCFA
:1008C50033CCC58233C5829BED9AEC99E58298407D
:1008D5000CF582EE9BFEED9AFDEC99FC0FD5F0D65A
:1008E500E4CEFBE4CDFAE4CCF9A88222B800C1B984
:1008F5000059BA002DEC8BF084CFCECDFCE5F0CBC2
:10090500F97818EF2FFFEE33FEED33FDEC33FCEBFA
:1009150033FB10D703994004EB99FB0FD8E5E4F9B5
:10092500FA227818EF2FFFEE33FEED33FDEC33FCA2
:10093500C933C910D7059BE99A4007EC9BFCE99A96
:10094500F90FD8E0E4C9FAE4CCFB2275F010EF2FDB
:10095500FFEE33FEED33FDCC33CCC833C810D707DB
:100965009BEC9AE899400AED9BFDEC9AFCE899F816
:0E0975000FD5F0DAE4CDFBE4CCFAE4C8F922A9
:10098300EB9FF5F0EA9E42F0E99D42F0E89C45F0CA
:010993002241
:10099400E8600FECC313FCED13FDEE13FEEF13FF41
:0309A400D8F12265
:0C09A700ECF0A3EDF0A3EEF0A3EFF022C3
:1009B300A8828583F0D083D0821209CA1209CA1291
:1009C30009CA1209CAE473E493A3C583C5F0C583B6
:1009D300C8C582C8F0A3C583C5F0C583C8C582C88E
:0109E30022F1
:1009E400EC8EF0A4CCC5F0CCCDF8EFA4CEC5F02DA0
:1009F400FDE43CFCE8A42EC8C5F03DFDE43CFCEF5E
:0D0A0400A4FFE5F028FEE43DFDE43CFC22EB
:10049A00E508246BF582E43462F583E005082290CE
:1004AA00626830070390626BE475F001120A690210
:1004BA000A112000E97F2ED2008018EF540F2490F1
:1004CA00D43440D4FF30040BEF24BFB41A005003D5
:1004DA002461FFE50960021509050CE50C700205A7
:1004EA000B30070E906268E475F001120A69EF0298
:1004FA000A570216C67403D2078003E4C207F50836
:10050A00906268120A80E4F509F50BF50CE50960BA
:10051A00077F201204DD80F5750AFFC201C200C2FE
:10052A0002C203C205C206C2081204A9FF700D3036
:10053A0007057F001204EEAF0CAE0B22B4255FC292
:10054A00D5C2041204A9FF24D0B40A00501A75F0C7
:10055A000A780930D50508B6FF0106C6A426F62092
:10056A00D5047002D20380D924CFB41A00EF500404
:10057A00C2E5D2040206EFD20180C6D20080C0D200
:10058A000280BCD2D580BAD20580B47F201204DDA5
:10059A002002077401B5090040F112049AFF1204FF
:1005AA00DD020517D208D206809512049AFB1204BE
:1005BA009AFA12049AF94A4B700679C07A077BFFB5
:1005CA0020022EE509602A7E008E82758300120AB7
:1005DA002A60060EEE650A70F0C2D5EBC0E0EAC0EA
:1005EA00E0E9C0E0EE120736D0E0F9D0E0FAD0E058
:1005FA00FB120A11FF60AAEBC0E0EAC0E0E9C0E022
:10060A001204DDD0E02401F9D0E03400FAD0E0FB96
:10061A00E50A0460DCD50AD980877BFF7A0779323C
:10062A00D202809C791080027908C206C20880082A
:10063A00D2D5790A8004790AC2D5E50A047002F58E
:10064A000AE4FAFDFEFF12049AFC7B082001131249
:10065A00049AFD7B1030000A12049AFE12049AFFD3
:10066A007B20EC3382D592D55013C3E43000069F29
:10067A00FFE49EFEE42001039DFDE49CFCE4CBF82C
:10068A00C201EC700CCFCECDCCE824F8F870F38020
:10069A0017C3EF33FFEE33FEED33FDEC33FCEB33E0
:1006AA00FB994002FB0FD8E9EB300105F8D0E0C412
:1006BA0048B201C0E00AEC4D4E4F78207B0070C270
:1006CA00EAB50A0040BCC0E0120738D0F0D0E020FA
:1006DA000104C4C0E0C4B201C0F01204C6D0F0D50F
:1006EA00F0EB020517120A8905B453062E58058540
:1006FA004C05814206324F063A44063A49059A4366
:08070A000640550624460624B2
:100712004506244707E05005892D058D2E05B02B8F
:1007220005912305AE2007C92A054948000005A8FE
:100732003F3F3F00790AA2D5200314300509B910C2
:10074200020404B9080104A2D520060250010420C3
:1007520002689202B509005034C0E07F20300319CC
:100762007F30A20272067205500F12078FC202C2B8
:1007720006C205C2087F30800F300503E9C0E012CF
:1007820004DD300503D0E0F9D0E0B509CC3005171F
:100792007F30B9100C1204DD7F583004077F788057
:1007A20003B908031204DD3002057F2D0204DD7F48
:1007B200202008F87F2B2006F322920280CF286E99
:1007C200756C6C2900D20112049A3001F8C20178CA
:1007D2000930D50108F60205492D50434958120443
:1007E2009A2403B405004001E49007DB931204CE7F
:0D07F200743A1204CED20375090402062EDB
:100A1100BB010689828A83E0225002E722BBFE02E3
:090A2100E32289828A83E4932216
:100A2A00BB010CE58229F582E5833AF583E0225081
:100A3A0006E92582F8E622BBFE06E92582F8E222CB
:0D0A4A00E58229F582E5833AF583E49322E5
:100A5700BB010689828A83F0225002F722BBFE017E
:020A6700F32278
:100A6900F8E0FBA3A3E0F925F0F0E5821582700216
:070A79001583E0FA38F022BA
:090A8000EBF0A3EAF0A3E9F02277
:100A8900D083D082F8E4937012740193700DA3A3FC
:100A990093F8740193F5828883E473740293686010
:060AA900EFA3A3A380DF10
:00000001FF
